:020000040800F2
:10000000280B0020890100089101000893010008D5
:100010009501000897010008990100080000000000
:100020000000000000000000000000009B0100082C
:100030009D010008000000009F010008A1010008C8
:10004000A3010008A3010008A3010008A301000800
:10005000A3010008A3010008A3010008A3010008F0
:10006000A3010008A3010008A3010008A3010008E0
:10007000A3010008A3010008A3010008A3010008D0
:10008000A3010008A3010008A3010008A3010008C0
:10009000A3010008A3010008A3010008A3010008B0
:1000A000A3010008A3010008A3010008A3010008A0
:1000B000210A0008A3010008A3010008A301000809
:1000C000A3010008A3010008A3010008A301000880
:1000D000A3010008A3010008A3010008A301000870
:1000E000A3010008A3010008A301000800F002F822
:1000F00000F03AF80AA090E8000C82448344AAF188
:100100000107DA4501D100F02FF8AFF2090EBAE885
:100110000F0013F0010F18BFFB1A43F0010318473B
:10012000080B0000280B0000103A24BF78C878C1E3
:10013000FAD8520724BF30C830C144BF04680C60ED
:10014000704700000023002400250026103A28BF35
:1001500078C1FBD8520728BF30C148BF0B60704739
:100160001FB51FBD10B510BD00F031F81146FFF7E7
:10017000F7FF00F037FD00F04FF803B4FFF7F2FF90
:1001800003BC00F057F800000948804709480047C1
:10019000FEE7FEE7FEE7FEE7FEE7FEE7FEE7FEE737
:1001A000FEE7FEE704480549054A064B7047000094
:1001B00081090008ED00000828050020280B002018
:1001C00028070020280700207047704770477546B1
:1001D00000F02CF8AE4605006946534620F00700B3
:1001E000854618B020B5FFF7DDFFBDE820404FF091
:1001F00000064FF000074FF000084FF0000B21F011
:100200000701AC46ACE8C009ACE8C009ACE8C009DD
:10021000ACE8C0098D46704710B50446AFF30080C6
:100220002046BDE81040FFF7A8BF00000048704717
:100230000400002001491820ABBEFEE726000200A2
:100240007047000008B501210D2000F0A5F96846AF
:1002500000F016F94FF48070ADF8000018208DF80A
:10026000030003208DF802006946174800F030F8BB
:10027000072000F031FA4FF40040ADF800001020E4
:100280008DF8030003208DF8020069460E4800F047
:100290001FF80820ADF8000018208DF80300032097
:1002A0008DF802006946094800F012F82020ADF8E8
:1002B000000018208DF8030003208DF80200694625
:1002C000024800F005F808BD00080140000C01409C
:1002D0002DE9F041024600250026002000230024DD
:1002E000002791F803C00CF00F0591F803C00CF043
:1002F000100CBCF1000F03D091F802C04CEA0505C8
:1003000091F800C0BCF1000F31D0146800202BE040
:100310004FF0010C0CFA00F3B1F800C00CEA030630
:100320009E4220D183004FF00F0C0CFA03F7BC4320
:1003300005FA03FC4CEA040491F803C0BCF1280F51
:1003400006D14FF0010C0CFA00FCC2F814C00AE010
:1003500091F803C0BCF1480F05D14FF0010C0CFA25
:1003600000FCC2F810C0401C0828D1D31460B1F8BA
:1003700000C0BCF1FF0F34DD546800202EE000F116
:10038000080C4FF0010808FA0CF3B1F800C00CEAB1
:1003900003069E4221D183004FF00F0C0CFA03F7A5
:1003A000BC4305FA03FC4CEA040491F803C0BCF119
:1003B000280F05D100F1080C08FA0CF8C2F81480D7
:1003C00091F803C0BCF1480F07D100F1080C4FF0C1
:1003D000010808FA0CF8C2F81080401C0828CED397
:1003E0005460BDE8F0810000F0B50A460023002407
:1003F0000021002500F00046B6F1004F02D11D4E4D
:10040000F16901E01B4E7168C0F3034583B200F44B
:100410004016B6F5401F08D121F07061154E766880
:1004200026F07066134F7E6012E000F48016B6F579
:10043000801F06D1032606FA05F4A14341F070613E
:1004400006E0460D360103FA06F6B14341F070614D
:1004500022B1460D360103FA06F6314300F000469C
:10046000B6F1004F02D1034EF16101E0014E71601F
:10047000F0BD00000000014041617047016170471C
:100480004FF6FF710180022181700421C170704715
:1004900008B54FF4A06000F055F81C208DF800005E
:1004A00001208DF801008DF802008DF803001C205A
:1004B000002809DB00F01F0201219140420992004F
:1004C00002F1E022C2F8001100BF684600F002F815
:1004D00008BD000070B5002100230F22C47804B3CA
:1004E000154C246804F4E064C4F5E064210AC1F109
:1004F0000403CA40447804FA03F184781440214389
:1005000009010E4C0678A155047804F01F0501245A
:10051000AC4005786D11AD0005F1E025C5F800414E
:1005200009E0047804F01F050124AC40044D06786E
:10053000761145F8264070BD0CED00E000E400E0C7
:1005400080E100E002490143024A11607047000067
:100550000000FA050CED00E029B1064AD269024319
:10056000044BDA6104E0034AD2698243014BDA6149
:10057000704700000010024029B1064A1269024388
:10058000044B1A6104E0034A12698243014B1A6169
:10059000704700000010024029B1064A92690243E8
:1005A000044B9A6104E0034A92698243014B9A61C9
:1005B000704700000010024029B1064AD268024389
:1005C000044BDA6004E0034AD2688243014BDA60EC
:1005D000704700000010024010B500F013F84FF40F
:1005E000803000F053F800F091F80446012C07D158
:1005F000C1044FF4403000F07BF8012000F072F8A5
:1006000010BD00000F48006840F001000D4908606F
:10061000084640680C4908400A4948600846006896
:100620000A490840074908600846006820F480200D
:1006300008600846406820F4FE0048604FF41F0040
:1006400088607047001002400000FFF8FFFFF6FED0
:1006500010B501460022002300204A11012A02D1D0
:10066000094C236806E0022A02D1074C236A01E004
:10067000054C636A01F01F02012494401C400CB138
:10068000012000E0002010BD00100240114909685F
:1006900021F480310F4A11601146096821F480214C
:1006A0001160B0F5803F03D0B0F5802F0ED106E089
:1006B0000849096841F48031064A116007E005499C
:1006C000096841F4A021034A116000E000BF00BFA7
:1006D00070470000001002400149C87170470000D7
:1006E00000100240014908667047000000004242C5
:1006F00002460020044B586820F47C1042EA0103B3
:100700001843014B586070470010024038B5002074
:1007100000900024002500BF3120FFF799FF054617
:100720000098401C00900098B0F5A06F01D0002DFB
:10073000F2D03120FFF78CFF08B1012400E0002443
:10074000204638BD21B1028842F04002028004E018
:1007500002884FF6BF731A400280704700B585B01B
:100760001A4800F037F801210803FFF715FF0121AF
:100770000846FFF739FE01211548FFF735FE6846A8
:1007800000F07DF84FF48270ADF802000820ADF85B
:100790000C000020ADF808000220ADF80600800231
:1007A000ADF804000020ADF80000ADF80E004FF4E5
:1007B0000070ADF80A006946044800F042F80121D3
:1007C0000248FFF7BFFF05B000BD00000030014048
:1007D0000002300010B504461148844208D10121BE
:1007E0008014FFF7E9FE0021A014FFF7E5FE16E0F4
:1007F0000C48844208D101210014FFF7BDFE0021FE
:100800002014FFF7B9FE0AE00748844207D101210E
:10081000C013FFF7B1FE0021E013FFF7ADFE10BDDE
:100820000030014000380040003C004002460020FB
:1008300013890B400BB1012000E00020704781813B
:10084000704710B50022028802F441520B884C8890
:1008500023438C882343CC8823430C8923434C892E
:1008600023438C892343CC8923431A430280838BFF
:100870004FF2FF74234083830B8A038210BD002153
:10088000018041808180C180018141818181C1815C
:1008900007210182704710B500F002F810BD00007A
:1008A0000CB50020019000903348006840F480307F
:1008B0003149086000BF3048006800F40030009003
:1008C0000198401C0190009818B90198B0F5A06FEC
:1008D000F1D12948006800F4003010B101200090E7
:1008E00001E0002000900098012843D123480068CF
:1008F00040F01000214908600846006820F003001D
:1009000008600846006840F0020008601A48406825
:10091000194948600846406848600846406840F405
:10092000806048600846406820F47C1048600846B3
:10093000406840F4E81048600846006840F0807065
:10094000086000BF0C48006800F000700028F9D073
:100950000948406820F0030007494860084640689D
:1009600040F00200486000BF0348406800F00C00FF
:100970000828F9D10CBD0000001002400020024000
:1009800010B51348006840F001001149086008469E
:100990004068104908400E494860084600680E4902
:1009A00008400B4908600846006820F48020086071
:1009B0000846406820F4FE0048604FF41F0088603D
:1009C000FFF769FF4FF000600449086010BD0000A8
:1009D000001002400000FFF8FFFFF6FE08ED00E007
:1009E0000EB501210846FFF7B7FD684600F0F0F8A4
:1009F0000020ADF802004FF48060ADF80400012043
:100A0000ADF800006946800700F090F801218807E2
:100A100000F065F801221146900700F07DF80EBD48
:100A200010B50121880700F066F801284AD101219C
:100A3000800700F051F84FF400412348FFF71CFDF8
:100A400002212248FFF7F2FE012808D12048008841
:100A50004FF6FF7202EA00111C48FFF7F0FE00BFDC
:100A600080211A48FFF7E2FE0128F9D04FF4004137
:100A70001548FFF703FD00BF01211448FFF7D6FE1C
:100A80000028F9D04FF400410F48FFF7F5FC022190
:100A90000E48FFF7CBFE012808D10E4800884FF61C
:100AA000FF7202EA00110948FFF7C9FE00BF80216A
:100AB0000648FFF7BBFE0128F9D04FF40041024879
:100AC000FFF7DCFC10BD00000008014000300140D1
:100AD0000000002002000020CA430282704721B1BA
:100AE000028842F00102028004E002884FF6FE73A1
:100AF0001A400280704730B50246002000230024CF
:100B0000158A05EA0103958905EA010413B10CB1C0
:100B1000012000E0002030BD1AB183890B4383819E
:100B200002E083898B4383817047000000220288A2
:100B30001D4B98420ED01D4B98420BD0B0F1804F08
:100B400008D01B4B984205D01A4B984202D01A4B42
:100B5000984204D14FF68F731A404B881A43174BB3
:100B6000984207D0164B984204D04FF6FF431A40E4
:100B7000CB881A4302808B8883850B8803850A4BB8
:100B800098420BD0094B984208D00E4B984205D0A2
:100B90000D4B984202D00D4B984201D10B7A03863F
:100BA0000123838270470000002C01400034014083
:100BB0000004004000080040000C0040001000400D
:100BC0000014004000400140004401400048014042
:100BD0004FF6FF71818000210180C1804180017248
:100BE00070470000C8200849088000200749088095
:100BF000FFF7F2FCFFF726FBFFF7B0FDFFF7F0FE73
:100C0000FFF746FC00BFFEE70000002002000020C6
:100C1000010000014000000080000020800400204E
:100C20000005002000000000480C00080000002023
:100C300004000000280100084C0C000804000020FB
:0C0C4000240B000044010008000000002C
:040000050800018965
:00000001FF
