:020000040800F2
:10000000280B0020890100089101000893010008D5
:100010009501000897010008990100080000000000
:100020000000000000000000000000009B0100082C
:100030009D010008000000009F010008A1010008C8
:10004000A3010008A3010008A3010008A301000800
:10005000A3010008A3010008A3010008A3010008F0
:10006000A3010008A3010008A3010008A3010008E0
:10007000A3010008A3010008A3010008A3010008D0
:10008000A3010008A301000845020008A30100081D
:10009000A3010008A3010008A3010008A3010008B0
:1000A000A3010008A3010008A3010008A3010008A0
:1000B000D10C0008A3010008A3010008A301000857
:1000C000A3010008A3010008A3010008A301000880
:1000D000A3010008A3010008A3010008A301000870
:1000E000A3010008A3010008A301000800F002F822
:1000F00000F03AF80AA090E8000C82448344AAF188
:100100000107DA4501D100F02FF8AFF2090EBAE885
:100110000F0013F0010F18BFFB1A43F0010318473B
:10012000D80D0000F80D0000103A24BF78C878C13F
:10013000FAD8520724BF30C830C144BF04680C60ED
:10014000704700000023002400250026103A28BF35
:1001500078C1FBD8520728BF30C148BF0B60704739
:100160001FB51FBD10B510BD00F031F81146FFF7E7
:10017000F7FF00F0A1FE00F04FF803B4FFF7F2FF25
:1001800003BC00F057F800000948804709480047C1
:10019000FEE7FEE7FEE7FEE7FEE7FEE7FEE7FEE737
:1001A000FEE7FEE704480549054A064B7047000094
:1001B000310C0008ED00000828050020280B002065
:1001C00028070020280700207047704770477546B1
:1001D00000F02CF8AE4605006946534620F00700B3
:1001E000854618B020B5FFF7DDFFBDE820404FF091
:1001F00000064FF000074FF000084FF0000B21F011
:100200000701AC46ACE8C009ACE8C009ACE8C009DD
:10021000ACE8C0098D46704710B50446AFF30080C6
:100220002046BDE81040FFF7A8BF00000048704717
:100230000800002001491820ABBEFEE7260002009E
:100240007047000010B54FF490610F4800F078F847
:10025000012817D14FF490610B4800F01DF81421CC
:10026000094800F07FF8094908801821064800F085
:1002700079F807490880054800880F2190FBF1F0C4
:100280000449088010BD0000002401400400002043
:10029000060000200000002000220A12D343036061
:1002A000704721B1826842F00102826003E08268F7
:1002B00022F001028260704700B585B0684600F008
:1002C000EBF800208DF8050003904FF460200290B9
:1002D0000020009002208DF8100001208DF804000D
:1002E0006946124800F058F80221104800F0BDF8A5
:1002F0000623012200210D4800F076F80623022291
:1003000009210A4800F070F84FF4E041074800F076
:100310000FF801224FF49061044800F031F80121F8
:100320000248FFF7BEFF05B000BD000000240140F9
:100330000A460021816821F4E04111438160704741
:1003400070B502460020002300240B125568CEB27F
:1003500005EA060415681D4015B10CB1012000E046
:10036000002070BD08B5024600200090009201F107
:100370002800009B184400900098006880B208BDD7
:1003800010B50023CBB21AB144681C43446002E0AC
:1003900044689C43446010BD30B5024600200023F1
:1003A00050680F4C20400D790C6844EA0524204326
:1003B000506090680B4C2040D1E902542C434D7999
:1003C00044EA450420439060D06A20F470000C7C1D
:1003D000641EE4B2234340EA0350D06230BD000003
:1003E000FFFEF0FFFDF7F1FFF0B5044615460020D3
:1003F00000220026092911DDE068A1F10A0707EBB8
:10040000470C072707FA0CF29043A1F10A0707EB04
:10041000470703FA07F21043E0600CE0206901EBA4
:10042000410C072707FA0CF2904301EB410703FA4E
:1004300007F210432061A06BC0F30156EF1C06F1D8
:10044000010CA7EB0C0707EB870C1F2707FA0CF230
:100450009043EF1C06F1010CA7EB0C0707EB870795
:1004600001FA07F21043A063F0BD10B50A4600215F
:100470000023816B21F44011531E41EA0351816333
:1004800010BD21B1826842F40212826003E08268EA
:1004900022F40212826070470021016001714171F3
:1004A0008160C160012101747047000008B501211D
:1004B0000D2000F0C5F9684600F030F94FF4807067
:1004C000ADF8000018208DF8030003208DF802001D
:1004D0006946244800F04AF8072000F055FA4FF426
:1004E0000040ADF8000010208DF8030003208DF8C7
:1004F000020069461B4800F039F80820ADF80000FA
:1005000018208DF8030003208DF802006946164874
:1005100000F02CF82020ADF8000018208DF8030022
:1005200003208DF8020069460F4800F01FF80120F3
:10053000ADF8000000208DF8030003208DF80200C4
:100540006946084800F012F80220ADF800000020CB
:100550008DF8030003208DF802006946024800F080
:1005600005F808BD00080140000C01402DE9F041EC
:10057000024600250026002000230024002791F8D1
:1005800003C00CF00F0591F803C00CF0100CBCF187
:10059000000F03D091F802C04CEA050591F800C0A5
:1005A000BCF1000F31D0146800202BE04FF0010C9B
:1005B0000CFA00F3B1F800C00CEA03069E4220D109
:1005C00083004FF00F0C0CFA03F7BC4305FA03FC51
:1005D0004CEA040491F803C0BCF1280F06D14FF097
:1005E000010C0CFA00FCC2F814C00AE091F803C038
:1005F000BCF1480F05D14FF0010C0CFA00FCC2F819
:1006000010C0401C0828D1D31460B1F800C0BCF160
:10061000FF0F34DD546800202EE000F1080C4FF08D
:10062000010808FA0CF3B1F800C00CEA03069E4278
:1006300021D183004FF00F0C0CFA03F7BC4305FAED
:1006400003FC4CEA040491F803C0BCF1280F05D167
:1006500000F1080C08FA0CF8C2F8148091F803C0F5
:10066000BCF1480F07D100F1080C4FF0010808FA5F
:100670000CF8C2F81080401C0828CED35460BDE8A6
:10068000F0810000F0B50A46002300240021002577
:1006900000F00046B6F1004F02D11D4EF16901E0B5
:1006A0001B4E7168C0F3034583B200F44016B6F5E3
:1006B000401F08D121F07061154E766826F07066F3
:1006C000134F7E6012E000F48016B6F5801F06D14D
:1006D000032606FA05F4A14341F0706106E0460DD9
:1006E000360103FA06F6B14341F0706122B1460DBE
:1006F000360103FA06F6314300F00046B6F1004F2A
:1007000002D1034EF16101E0014E7160F0BD0000C5
:100710000000014041617047016170474FF6FF7171
:100720000180022181700421C170704708B54FF427
:10073000E06000F05BF81C208DF8000000208DF8D0
:1007400001008DF8020001208DF803001C2000F04C
:10075000A6FB684600F012F812208DF80000032076
:100760008DF8010001208DF802008DF803001220A1
:1007700000F095FB684600F001F808BD70B5002157
:1007800000230F22C47804B3154C246804F4E064F9
:10079000C4F5E064210AC1F10403CA40447804FAB4
:1007A00003F184781440214309010E4C0678A155C9
:1007B000047804F01F050124AC4005786D11AD00EC
:1007C00005F1E025C5F8004109E0047804F01F05B3
:1007D0000124AC40044D0678761145F8264070BDE2
:1007E0000CED00E000E400E080E100E0024901439C
:1007F000024A1160704700000000FA050CED00E0AD
:1008000029B1064AD2690243044BDA6104E0034A83
:10081000D2698243014BDA61704700000010024048
:1008200029B1064A12690243044B1A6104E0034AE3
:1008300012698243014B1A617047000000100240A8
:1008400029B1064A92690243044B9A6104E0034AC3
:1008500092698243014B9A61704700000010024088
:1008600029B1064AD2680243044BDA6004E0034A25
:10087000D2688243014BDA607047000000100240EA
:1008800010B500F017F84FF4803000F057F800F082
:1008900095F80446012C07D1C1044FF4403000F014
:1008A0007FF8012000F076F801214802FFF7C8FF29
:1008B00010BD00000F48006840F001000D490860BD
:1008C000084640680C4908400A49486008460068E4
:1008D0000A490840074908600846006820F480205B
:1008E00008600846406820F4FE0048604FF41F008E
:1008F00088607047001002400000FFF8FFFFF6FE1E
:1009000010B501460022002300204A11012A02D11D
:10091000094C236806E0022A02D1074C236A01E051
:10092000054C636A01F01F02012494401C400CB185
:10093000012000E0002010BD0010024011490968AC
:1009400021F480310F4A11601146096821F4802199
:100950001160B0F5803F03D0B0F5802F0ED106E0D6
:100960000849096841F48031064A116007E00549E9
:10097000096841F4A021034A116000E000BF00BFF4
:1009800070470000001002400149C8717047000024
:100990000010024001490866704700000000424212
:1009A00002460020044B586820F47C1042EA010300
:1009B0001843014B586070470010024038B50020C2
:1009C00000900024002500BF3120FFF799FF054665
:1009D0000098401C00900098B0F5A06F01D0002D49
:1009E000F2D03120FFF78CFF08B1012400E0002491
:1009F000204638BD21B1028842F04002028004E066
:100A000002884FF6BF731A400280704700B585B068
:100A10001A4800F037F801210803FFF711FF012100
:100A20000846FFF72FFE01211548FFF72BFE684609
:100A300000F07DF84FF48270ADF802000820ADF8A8
:100A40000C000020ADF808000220ADF8060080027E
:100A5000ADF804000020ADF80000ADF80E004FF432
:100A60000070ADF80A006946044800F042F8012120
:100A70000248FFF7BFFF05B000BD00000030014095
:100A80000002300010B504461148844208D101210B
:100A90008014FFF7E5FE0021A014FFF7E1FE16E049
:100AA0000C48844208D101210014FFF7B9FE00214F
:100AB0002014FFF7B5FE0AE00748844207D1012160
:100AC000C013FFF7ADFE0021E013FFF7A9FE10BD34
:100AD0000030014000380040003C00400246002049
:100AE00013890B400BB1012000E000207047818189
:100AF000704710B50022028802F441520B884C88DE
:100B000023438C882343CC8823430C8923434C897B
:100B100023438C892343CC8923431A430280838B4C
:100B20004FF2FF74234083830B8A038210BD0021A0
:100B3000018041808180C180018141818181C181A9
:100B400007210182704710B500F002F810BD0000C7
:100B50000CB50020019000903348006840F48030CC
:100B60003149086000BF3048006800F40030009050
:100B70000198401C0190009818B90198B0F5A06F39
:100B8000F1D12948006800F4003010B10120009034
:100B900001E0002000900098012843D1234800681C
:100BA00040F01000214908600846006820F003006A
:100BB00008600846006840F0020008601A48406873
:100BC000194948600846406848600846406840F453
:100BD000806048600846406820F47C104860084601
:100BE000406840F4E81048600846006840F08070B3
:100BF000086000BF0C48006800F000700028F9D0C1
:100C00000948406820F003000749486008464068EA
:100C100040F00200486000BF0348406800F00C004C
:100C20000828F9D10CBD000000100240002002404D
:100C300010B51348006840F00100114908600846EB
:100C40004068104908400E494860084600680E494F
:100C500008400B4908600846006820F480200860BE
:100C60000846406820F4FE0048604FF41F0088608A
:100C7000FFF769FF4FF000600449086010BD0000F5
:100C8000001002400000FFF8FFFFF6FE08ED00E054
:100C90000EB501210846FFF7B3FD684600F0F6F8EF
:100CA0000020ADF8020040F28F10ADF804000120E2
:100CB000ADF800006946800700F096F8012188072A
:100CC00000F06BF801221146900700F083F80EBD8A
:100CD00010B50121880700F06CF801284ED10121E0
:100CE000800700F057F801212548FFF7CAFB4FF4B1
:100CF00000412448FFF70EFD02212348FFF7EEFED6
:100D0000012808D1214800884FF6FF7202EA00113D
:100D10001D48FFF7ECFE00BF80211B48FFF7DEFEF9
:100D20000128F9D04FF400411648FFF7F5FC00BF49
:100D300001211548FFF7D2FE0028F9D04FF40041F9
:100D40001048FFF7E7FC02210F48FFF7C7FE012814
:100D500008D10F4800884FF6FF7202EA00110A48D6
:100D6000FFF7C5FE00BF80210748FFF7B7FE012847
:100D7000F9D04FF400410348FFF7CEFC10BD00004E
:100D80000024014000080140003001400000002024
:100D900002000020CA430282704721B1028842F05B
:100DA0000102028004E002884FF6FE731A400280BE
:100DB000704730B50246002000230024158A05EA5A
:100DC0000103958905EA010413B10CB1012000E08B
:100DD000002030BD1AB183890B43838102E08389EF
:100DE0008B43838170470000002202881D4B98428C
:100DF0000ED01D4B98420BD0B0F1804F08D01B4B4A
:100E0000984205D01A4B984202D01A4B984204D10E
:100E10004FF68F731A404B881A43174B984207D0EE
:100E2000164B984204D04FF6FF431A40CB881A4322
:100E300002808B8883850B8803850A4B98420BD0F0
:100E4000094B984208D00E4B984205D00D4B984262
:100E500002D00D4B984201D10B7A03860123838285
:100E600070470000002C01400034014000040040A5
:100E700000080040000C004000100040001400403A
:100E80000040014000440140004801404FF6FF711E
:100E9000818000210180C18041800172704700285B
:100EA00009DB00F01F02012191404209920002F18A
:100EB000E022C2F800117047002008490880FFF7BF
:100EC000DFFCFFF7F3FAFFF7A1FDFFF7E1FEFFF705
:100ED000F3F9FFF72BFC00BFFEE700000200002043
:100EE000010000014000000080000020800400207C
:100EF0000005002000000000180F0008000000207E
:100F00000800000028010008200F00080800002049
:100F1000200B000044010008000000000000000059
:040000050800018965
:00000001FF
